:100000000C948F000C94B7000C94B7000C94B700BC
:100010000C94B7000C94B7000C94B7000C94B70084
:100020000C94B7000C94B7000C94B7000C94B70074
:100030000C94B7000C94B7000C94B7000C94B70064
:100040000C9425050C94B7000C94B7000C94B700E1
:100050000C94B7000C94B7000C94B7000C94B70044
:100060000C94B7000C94B70008000000BE9224491D
:10007000123EABAAAA2ABECDCCCC4C3E00000080DA
:10008000BEABAAAAAA3E00000000BF000000803F4D
:100090000000000000084178D3BB4387D1133D190D
:1000A0000E3CC3BD4282AD2B3E68EC8276BED98F3A
:1000B000E1A93E4C80EFFFBE01C4FF7F3F0000007E
:1000C000000000000000240027002A0000000000BB
:1000D000250028002B000000000023002600290036
:1000E00004040404040404040202020202020303DE
:1000F00003030303010204081020408001020408E6
:100100001020010204081020000000080002010075
:100110000003040700000000000000008408112410
:100120001FBECFEFD8E0DEBFCDBF11E0A0E0B1E051
:10013000E0E9F7E102C005900D92A23AB107D9F7C4
:1001400021E0A2EAB1E001C01D92A93EB207E1F7A9
:1001500010E0CFE8D0E004C02197FE010E94C00B60
:10016000CE38D107C9F70E946F050C94C60B0C94CA
:1001700000004F925F926F927F92BF92CF92DF9278
:10018000EF92FF920F931F93CF93DF936B017C014C
:1001900089018091D90124E0829FC0011124FC01D2
:1001A000EE5CFE4F4081518162817381C416D50699
:1001B000E606F706A4F4825D9E4FFC014081518162
:1001C0006281738181E090E0A0E0B0E0841B950B38
:1001D000A60BB70BC816D906EA06FB066CF480E03E
:1001E00095E22091D901821708F048C0F801E80F84
:1001F000F11D90838F5FF5CFB12CE091D901BE1630
:1002000028F5CB2DD0E0E150FF0BEC1BFD0BEE0FE2
:10021000FF1FEE0FFF1FEE5CFE4F4080518062809B
:100220007380C701B601A30192010E94A908C00F03
:10023000D11F2883A22FB0E0A30192010E94C80819
:10024000C61AD70AE80AF90AB394D7CF8091C80131
:10025000811114C044E2E82FF0E02091D90121502F
:10026000330BE217F30754F4E00FF11F9081911163
:1002700003C040838F5FEFCF9A30E0F7DF91CF91DB
:100280001F910F91FF90EF90DF90CF90BF907F90E4
:100290006F905F904F900895AC018091D901EBED84
:1002A000F1E020E0821332C0A2ECB1E030E090E057
:1002B00060E471E4231709F450C0FA01E90FF11D5D
:1002C000E081EE2309F449C080ED8E0F8A3008F5F5
:1002D0000E2E000CFF0BE552FF4F808159968C9338
:1002E000599781E0890FFA01E80FF11DE081EE32A4
:1002F00049F459968C915997816459968C935997E2
:1003000082E0890F3F5F1196982FD4CF11922F5F13
:10031000C9CF8FEB8E0F8A3130F40E2E000CFF0BFD
:10032000EC52FF4FDACF8FE98E0F8A3130F40E2E68
:10033000000CFF0BEC54FF4FD0CFE03221F4599664
:100340001C925997CECFEE3221F459967C9359974F
:10035000C8CF59966C935997C4CF0895833081F0D4
:1003600028F4813099F08230A9F008958730A9F0FF
:100370008830C9F08430B1F4809180008F7D03C053
:10038000809180008F7780938000089584B58F7767
:1003900084BD089584B58F7DFBCF8091B0008F77A9
:1003A0008093B00008958091B0008F7DF9CFCF93F6
:1003B000DF93282F30E0F901E85FFE4F8491F901C7
:1003C000EC50FF4FD491F901E052FF4FC491CC2380
:1003D000A1F081110E94AE01EC2FF0E0EE0FFF1FA3
:1003E000EA52FF4FA591B491EC91ED2381E090E0AA
:1003F00009F480E0DF91CF91089580E090E0FACF9A
:100400001F93CF93DF93282F30E0F901E85FFE4F71
:100410008491F901EC50FF4FD491F901E052FF4F64
:10042000C491CC23A9F0162F81110E94AE01EC2FAC
:10043000F0E0EE0FFF1FE453FF4FA591B4918FB78B
:10044000F894EC91111108C0D095DE23DC938FBF96
:10045000DF91CF911F910895DE2BF8CFCF93DF93DB
:1004600090E0FC01EC50FF4F249180529F4FFC0123
:1004700084918823D1F090E0880F991FFC01EE53FE
:10048000FF4FA591B491FC01E453FF4FC591D49166
:10049000623071F49FB7F8943C91822F809583234A
:1004A0008C93E8812E2B28839FBFDF91CF910895F5
:1004B0008FB7F894EC912E2B2C938FBFF6CF3FB7CC
:1004C000F8948091A7019091A801A091A901B09101
:1004D000AA0126B5A89B05C02F3F19F00196A11DC2
:1004E000B11D3FBFBA2FA92F982F8827BC01CD017E
:1004F000620F711D811D911D42E0660F771F881FDD
:10050000991F4A95D1F70895AF92BF92DF92EF926B
:10051000FF920F931F93CF93DF938091C7018111B7
:10052000C8C00E945F020091E5011091E601209190
:10053000E7013091E801AB01BC01401B510B620B9C
:10054000730B8091E3019091E401092E000CAA0B3A
:10055000BB0B481759076A077B0708F4A0C00E9425
:100560005F026093E5017093E6018093E701909349
:10057000E8018091C60181114DC0C0E08091D90190
:10058000C81758F4EC2FF0E0EE53FE4F6091C30112
:1005900087810E940002CF5FF1CFE091DA01F0E0A5
:1005A000EE53FE4F6091C50187850E940002809145
:1005B000DA018F5F883058F58093DA01C091DA0153
:1005C000EC2FF0E0EE53FE4F6091C40187850E944E
:1005D000000201E010E002C0000F111FCA95E2F70F
:1005E000C0E08091D901C81708F059C0EC2FF0E0A5
:1005F000EE53FE4F818D90E080239123892B29F0CB
:100600006091C20187810E940002CF5FEACF109201
:10061000DA01D4CFC1EDD1E009ED11E06091C5015F
:1006200089910E9400020C171D07C1F7E091DA01C1
:10063000F0E0EE53FE4F6091C30187810E940002FB
:100640008091DA018F5F8093DA019091D901891747
:1006500010F01092DA01C091DA01D0E0CE53DE4FF3
:100660006091C2018F810E94000210E000E0699653
:10067000888190E0002E02C0959587950A94E2F754
:1006800080FF08C06091C401F801EE53FE4F8785DA
:100690000E9400020F5F1F4F0830110549F7DF91DC
:1006A000CF911F910F91FF90EF90DF90BF90AF908F
:1006B00008958091C601811156C002EC11E0D0E08E
:1006C000C0E0EE24E394F12C6091C401F801878529
:1006D0000E94000257010C2E02C0AA0CBB1C0A94F7
:1006E000E2F7D12C8091D901D81688F4ED2DF0E0F5
:1006F000EE53FE4F818D90E08A219B21892B29F0BA
:100700006091C20187810E940002D394EBCF809157
:10071000E3019091E4018230910538F0880F991F30
:10072000880F991F05970197F1F7D12C8091D90176
:10073000D81658F4ED2DF0E0EE53FE4F6091C30152
:1007400087810E940002D394F1CF6091C501F80126
:1007500087850E94000221960F5F1F4FC830D10588
:1007600009F0B2CF9CCFD12C09ED11E08091D901D5
:10077000D81608F094CFCD2DD0E0CE53DE4F609147
:10078000C2018F810E940002F12CE12C5E01F9E18F
:10079000AF0EB11CF501808190E00E2C02C0959542
:1007A00087950A94E2F780FF08C06091C401F701C1
:1007B000EE53FE4F87850E940002FFEFEF1AFF0AFB
:1007C00088E0E816F10431F78091E3019091E401AB
:1007D0008230910538F0880F991F880F991F05976F
:1007E0000197F1F781EDE82E81E0F82E6091C501C7
:1007F000F70181917F010E9400020E151F05B1F7DC
:100800006091C3018F810E940002D394AFCF2FB7B4
:10081000F8946091A3017091A4018091A501909139
:10082000A6012FBF0895AF92BF92DF92EF92FF9281
:100830000F931F93CF93DF93CDB7DEB7D62E0DB7AF
:100840001EB79091D9012DB73EB7291B31090FB6BC
:10085000F8943EBF0FBE2DBFADB7BEB711967D0158
:10086000682F70E090E080E09D014D2D0E94B9005E
:100870004091D901842F8150990B9C015E2D570125
:10088000E2ECF1E08A2D851B8417A8F4D5018D9147
:100890005D0190E0855F9E4FDC018C91DD2019F0B9
:1008A000818F3196EFCFBF01625C71402617370709
:1008B000B9F78068F5CF0FB6F8941EBF0FBE0DBF15
:1008C000DF91CF911F910F91FF90EF90DF90BF903C
:1008D000AF9008958F929F92AF92BF92CF92DF9286
:1008E000EF92FF92B82E80E480937C0080917A0092
:1008F000806480937A0080917A0086FDFCCF80919D
:10090000780060917900762F682F072E000C880BF5
:10091000990B0E94190A2AE038E240EA5BE30E9440
:100920001E0B9B01AC0160E078ED86ED97E40E9420
:10093000760920E030EE4BEA56E40E9404090E945A
:10094000D60A23E333E343EC51EC0E941E0B20E074
:1009500030E046E953E40E9405096B017C01B110C7
:1009600059C02AE939E949E55FE36091AF01709127
:10097000B0018091B1019091B2010E941E0B4B0118
:100980005C0128E939E949E15EE3C701B6010E944B
:100990001E0B9B01AC01C501B4010E9405096093C7
:1009A000AF017093B0018093B1019093B201C090F8
:1009B000AF01D090B001E090B101F090B20120E021
:1009C00030E04FE753E4C701B6010E94C90A181688
:1009D00054F580E090E0AFE7B3E48093AF019093EB
:1009E000B001A093B101B093B2016091AF017091D9
:1009F000B0018091B1019091B2010E94E809609329
:100A0000B301FF90EF90DF90CF90BF90AF909F9099
:100A10008F900895C092AF01D092B001E092B101E1
:100A2000F092B201C4CF20E030E0A901C701B601C5
:100A30000E94710987FFD9CF1092AF011092B001C7
:100A40001092B1011092B201D0CF1F920F920FB647
:100A50000F9211242F933F938F939F93AF93BF9344
:100A60008091A3019091A401A091A501B091A6014C
:100A70003091A20123E0230F2D3758F50196A11DD7
:100A8000B11D2093A2018093A3019093A401A09390
:100A9000A501B093A6018091A7019091A801A09112
:100AA000A901B091AA010196A11DB11D8093A701D2
:100AB0009093A801A093A901B093AA01BF91AF910F
:100AC0009F918F913F912F910F900FBE0F901F908C
:100AD000189526E8230F0296A11DB11DD2CFCF9302
:100AE000DF93CDB7DEB7789484B5826084BD84B5DA
:100AF000816084BD85B5826085BD85B5816085BD19
:100B000080916E00816080936E00109281008091D0
:100B10008100826080938100809181008160809358
:100B20008100809180008160809380008091B1007D
:100B300084608093B1008091B00081608093B000A8
:100B400080917A00846080937A0080917A0082603C
:100B500080937A0080917A00816080937A008091FE
:100B60007A00806880937A001092C1001092C601CA
:100B70001092C7011092C80183E08093D90181E0EF
:100B80008093C2011092C4011092C3018093C501E9
:100B9000E0E0F1E0A1EDB1E088E091E021912D935A
:100BA0008E179F07D9F7809108018093C901809122
:100BB00009018093CA0180910A018093CB0110E062
:100BC0008091D901181798F4812F90E09C012E5341
:100BD0003E4F790161E0F90187810E942E02609108
:100BE000C301F70187810E9400021F5FE9CF02EC79
:100BF00011E061E0F80187850E942E026091C50135
:100C0000F80187850E9400020F5F1F4FF1E00A3C48
:100C10001F0779F79091D901EBEDF1E080E098178B
:100C200019F011928F5FFBCF0E94840261E083E094
:100C30000E942E0262E084E00E942E0290E080E09A
:100C40000E9493088093BB018852833840F088E269
:100C50008093BB0168E290E080E00E949B0880E006
:100C6000E82E80E0F82E11E092E0D92E28E2C22E84
:100C700080E00E946A040091C101023009F0BCC00A
:100C80006091BB0170E090E080E00E94170A209123
:100C9000AF013091B0014091B1015091B2010E9479
:100CA00004094B015C012091AB013091AC014091F2
:100CB000AD015091AE010E94040920E030E040E017
:100CC00051E40E941E0B2B013C012DE33AE047ED5D
:100CD0005EE3C501B4010E941E0B9B01AC01C30180
:100CE000B2010E9405098092AB019092AC01A092E2
:100CF000AD01B092AE0120E030E040E85FE30E9439
:100D0000C90A61E018160CF060E083E00E9400025E
:100D100084E00E94D7015C0181E0A114B10409F0D4
:100D200080E08093BA018091B90181110FC0A114B4
:100D3000B10461F41093B9010E9407046093B501F6
:100D40007093B6018093B7019093B8018091B4017C
:100D50008111ABC08091B901882309F4A6C0AB28EA
:100D600009F0A6C00E9407048090B5019090B601DA
:100D7000A090B701B090B801681979098A099B0958
:100D8000693E73408105910528F083E08093C1019D
:100D90001093B4010E9407048090BD019090BE01A1
:100DA000A090BF01B090C001681979098A099B0918
:100DB0006639710581059105B0F083E00E94D70185
:100DC0002091B30160E0892B09F46FEF822F0E941C
:100DD00013040E9407046093BD017093BE018093C9
:100DE000BF019093C0010E948402E114F10409F450
:100DF0003FCF0E9400003CCF60E083E00E940002F1
:100E0000033009F0A4C084E00E94D7015C0181E0B6
:100E1000A114B10409F080E08093BA018091B90176
:100E200081110FC0A114B10461F41093B9010E94A3
:100E300007046093B5017093B6018093B701909356
:100E4000B8018091B9019091B4019923B1F1811158
:100E500051C08091BA01811104C01092B901109261
:100E6000B4010E9407048090BD019090BE01A09043
:100E7000BF01B090C001681979098A099B096639D8
:100E800071058105910508F4AECF0091BC010023E6
:100E900009F458C06FEF8091BB010E94130481E0F8
:100EA000011180E08093BC0194CFAB2809F472CF8C
:100EB0001092B9011092B4016DCF882351F2AB2882
:100EC000E1F40E9407048090B5019090B601A090D3
:100ED000B701B090B801681979098A099B09693E80
:100EE00073408105910508F4B4CFD092C1011093ED
:100EF000B401AFCFAB2809F4ACCF0E9407048090B7
:100F0000B5019090B601A090B701B090B8016819F2
:100F100079098A099B09683E73408105910508F0AB
:100F200098CF8091BB01865F8B3A48F48093BB01D8
:100F30006091BB0190E080E00E949B088ACFC09244
:100F4000BB01F6CF8AE591E00E944C01A8CF0130A9
:100F500009F05AC00E9407048090BD019090BE0124
:100F6000A090BF01B090C001681979098A099B0956
:100F70006B3471058105910508F435CF0091BC01F2
:100F800000FD3DC06091BB0170E090E080E0ADB637
:100F9000BEB62091D901EDB7FEB7E21BF1090FB63D
:100FA000F894FEBF0FBEEDBF2DB73EB72F5F3F4F8A
:100FB00049014FEF0E94B9003091D901482D8BEDC6
:100FC00091E0D4012A2F241B231748F4ED91F0E07F
:100FD000E55FFE4F2081FC012193CF01F3CF0FB6D7
:100FE000F894BEBE0FBEADBE0F5F0093BC010531CD
:100FF00008F4EFCED092C1011092BC01EACE8AE58E
:1010000091E00E944C01F0CF84E00E94D701892B2F
:1010100009F475C081E00E946A040E940704809070
:10102000BD019090BE01A090BF01B090C0016819B1
:1010300079098A099B09663971058105910508F4CA
:10104000D2CE0091BC01EFEFE00FE13108F04EC0CD
:10105000F0E0E35DF74F0C94C00B3E0846084908EA
:101060004C084F085208550858085B085E0861088C
:10107000640867086A086D08700873088EE591E0D7
:101080000E944C018091BC018F5F0CCF82E691E001
:10109000F7CF86E691E0F4CF8AE691E0F1CF8EE6D5
:1010A00091E0EECF82E791E0EBCF86E791E0E8CFE9
:1010B0008AE791E0E5CF8EE791E0E2CF82E891E028
:1010C000DFCF86E891E0DCCF8AE891E0D9CF8EE8E7
:1010D00091E0D6CF82E991E0D3CF86E991E0D0CFFD
:1010E0008AE991E0CDCF8EE991E0CACF8AE591E01F
:1010F0000E944C01033130F21092BC01C3CF109218
:10110000BC011093C1016FCEE2ECF1E080ED97E0FD
:1011100092A381A3178A108E13A214A215A216A25D
:10112000148215820895F999FECF92BD81BDF89A77
:10113000992780B50895262FF999FECF1FBA92BD41
:1011400081BD20BD0FB6F894FA9AF99A0FBE0196A8
:101150000895052E97FB1EF400940E94C00857FDC9
:1011600007D00E94D30807FC03D04EF40C94C008AB
:1011700050954095309521953F4F4F4F5F4F0895C3
:1011800090958095709561957F4F8F4F9F4F0895F3
:101190000E94F508A59F900DB49F900DA49F800D0F
:1011A000911D11240895A1E21A2EAA1BBB1BFD015B
:1011B0000DC0AA1FBB1FEE1FFF1FA217B307E40736
:1011C000F50720F0A21BB30BE40BF50B661F771F8E
:1011D000881F991F1A9469F760957095809590956E
:1011E0009B01AC01BD01CF010895A29FB001B39F47
:1011F000C001A39F700D811D1124911DB29F700D20
:10120000811D1124911D08955058BB27AA270E94C3
:101210001C090C948F0A0E94810A38F00E94880AE7
:1012200020F039F49F3F19F426F40C947E0A0EF452
:10123000E095E7FB0C94780AE92F0E94A00A58F386
:10124000BA17620773078407950720F079F4A6F5AB
:101250000C94C20A0EF4E0950B2EBA2FA02D0B01B0
:10126000B90190010C01CA01A0011124FF27591BEB
:1012700099F0593F50F4503E68F11A16F040A22FF1
:10128000232F342F4427585FF3CF46953795279562
:10129000A795F0405395C9F77EF41F16BA0B620B61
:1012A000730B840BBAF09150A1F0FF0FBB1F661FA8
:1012B000771F881FC2F70EC0BA0F621F731F841FEB
:1012C00048F4879577956795B795F7959E3F08F011
:1012D000B0CF9395880F08F09927EE0F97958795D3
:1012E00008950E94540A08F481E008950E948A0932
:1012F0000C948F0A0E94880A58F00E94810A40F0DC
:1013000029F45F3F29F00C94780A51110C94C30A18
:101310000C947E0A0E94A00A68F39923B1F3552326
:1013200091F3951B550BBB27AA27621773078407F8
:1013300038F09F5F5F4F220F331F441FAA1FA9F38E
:1013400035D00E2E3AF0E0E832D091505040E6957C
:10135000001CCAF72BD0FE2F29D0660F771F881FDD
:10136000BB1F261737074807AB07B0E809F0BB0BD0
:10137000802DBF01FF2793585F4F3AF09E3F5105E4
:1013800078F00C94780A0C94C30A5F3FE4F3983E1B
:10139000D4F3869577956795B795F7959F5FC9F7CD
:1013A000880F911D9695879597F90895E1E0660F4E
:1013B000771F881FBB1F621773078407BA0720F0C7
:1013C000621B730B840BBA0BEE1F88F7E095089530
:1013D0000E94A80A88F09F5798F0B92F9927B75113
:1013E000B0F0E1F0660F771F881F991F1AF0BA95C9
:1013F000C9F714C0B13091F00E94C20AB1E008955B
:101400000C94C20A672F782F8827B85F39F0B93F4C
:10141000CCF3869577956795B395D9F73EF490957B
:101420008095709561957F4F8F4F9F4F0895E894F9
:1014300009C097FB3EF490958095709561957F4F1C
:101440008F4F9F4F9923A9F0F92F96E9BB279395CA
:10145000F695879577956795B795F111F8CFFAF4DA
:10146000BB0F11F460FF1BC06F5F7F4F8F4F9F4F0B
:1014700016C0882311F096E911C0772321F09EE869
:10148000872F762F05C0662371F096E8862F70E0CF
:1014900060E02AF09A95660F771F881FDAF7880FA9
:1014A0009695879597F90895990F0008550FAA0BFF
:1014B000E0E8FEEF16161706E807F907C0F0121667
:1014C0001306E407F50798F0621B730B840B950B6A
:1014D00039F40A2661F0232B242B252B21F40895BF
:1014E0000A2609F4A140A6958FEF811D811D08955C
:1014F00097F99F6780E870E060E008959FEF80ECC7
:10150000089500240A941616170618060906089569
:1015100000240A9412161306140605060895092ECF
:101520000394000C11F4882352F0BB0F40F4BF2B3E
:1015300011F460FF04C06F5F7F4F8F4F9F4F08957E
:1015400057FD9058440F551F59F05F3F71F0479574
:10155000880F97FB991F61F09F3F79F08795089559
:10156000121613061406551FF2CF4695F1DF08C078
:10157000161617061806991FF1CF86957105610595
:1015800008940895E894BB2766277727CB0197F93D
:1015900008950E94540A08F48FEF089516F00C94F1
:1015A0008B0B0C947E0A68940C94780A0E94A80A0B
:1015B000A8F39923C1F3AEF3DF93CF931F930F9357
:1015C000FF92C92FDD2788232AF02197660F771F06
:1015D000881FDAF720E030E040E85FEB9FE38839CE
:1015E00020F0803E38F021968F770E940509E8E6CA
:1015F000F0E004C00E940509E5E9F0E00E94990BC3
:101600008B01BE01EC01FB2E6F5771097595771F99
:10161000880B990B0E94190A28E132E741E35FE346
:101620000E94310BAF2D9801AE01FF900F911F91D9
:10163000CF91DF910E941C090C948F0A0E94310BFC
:101640000C948F0A0E94810A38F00E94880A20F0C8
:10165000952311F00C94780A0C947E0A11240C94B2
:10166000C30A0E94A00A70F3959FC1F3950F50E042
:10167000551F629FF001729FBB27F00DB11D639F44
:10168000AA27F00DB11DAA1F649F6627B00DA11DEA
:10169000661F829F2227B00DA11D621F739FB00D90
:1016A000A11D621F839FA00D611D221F749F332700
:1016B000A00D611D231F849F600D211D822F762F99
:1016C0006A2F11249F5750409AF0F1F088234AF076
:1016D000EE0FFF1FBB1F661F771F881F91505040E2
:1016E000A9F79E3F510580F00C94780A0C94C30A28
:1016F0005F3FE4F3983ED4F3869577956795B79569
:10170000F795E7959F5FC1F7FE2B880F911D969582
:10171000879597F908959F3F31F0915020F4879570
:1017200077956795B795880F911D9695879597F949
:101730000895DF93CF931F930F93FF92EF92DF9261
:101740007B018C01689406C0DA2EEF010E94310BF8
:10175000FE01E894A5912591359145915591A6F307
:10176000EF010E941C09FE019701A801DA9469F7B4
:10177000DF90EF90FF900F911F91CF91DF9108952F
:10178000EE0FFF1F0590F491E02D0994F894FFCF20
:10179000060A0B0102070C000508093F065B4F66AD
:1017A0006D7D077F6F777C395E79713D76060E76A9
:1017B0003800543F7367506D783E3E00766E63008C
:1017C0004041010000000A00000064000000E8033E
:1017D000000010270000A086010040420F00809604
:1017E000980000E1F50500CA9A3B20202000202047
:1017F0005000205055005055530055534800534851
:1018000020004820540020544800544845004845D2
:1018100020004520420020425500425554005554B6
:10182000540054544F00544F4E004F4E20004E2051
:02183000200096
:00000001FF
